:100000003FC063C062C061C060C05FC0ECC25DC081
:100010005CC05BC05AC059C058C057C056C055C01C
:1000200054C053C052C051C050C000000000000076
:1000300000020000000103040000000001020201B0
:100040000408102040010204081020408004040429
:100050000101040404040402020202020202020179
:100060000000390036000000300000003B0038007E
:100070000000320000003A00370000003100380173
:1000800011241FBECFE5D1E0DEBFCDBF10E0A0E65A
:10009000B0E0EEEAFEE002C005900D92AE36B10788
:1000A000D9F720E0AEE6B0E001C01D92A83BB20750
:1000B000E1F710E0C0E4D0E003C02197FE011ED4B8
:1000C000CF33D107D1F78BD2F0C69ACF84E0C0D31B
:1000D00090937F0080937E0087E0BAD390937D0059
:1000E00080937C0008958EE690E0C1D190E09093DB
:1000F000AD008093AC0060E08EE690E083D19093F9
:10010000AB008093AA0008951092A9001092A80055
:1001100088E09ED321E030E0892B11F030E020E030
:100120008091A8009091A900822B932B9093A90015
:100130008093A80089E08CD330E020E0892B11F473
:1001400022E030E08091A8009091A900822B932BAF
:100150009093A9008093A8008AE07AD330E020E051
:10016000892B11F424E030E08091A8009091A9003F
:10017000822B932B9093A9008093A8008BE068D3E7
:10018000892B69F090E080E02091A8003091A900CF
:10019000822B932B9093A9008093A800089588E068
:1001A00090E0F2CFB1DF1092A1001092A000109267
:1001B000A3001092A2001092A5001092A400109229
:1001C000A7001092A60080FF08C02091AA003091DD
:1001D000AB003093A1002093A00081FF0BC02091C1
:1001E000AC003091AD002F3F310521F03093A300DA
:1001F0002093A20082FF08C020917E0030917F00F2
:100200003093A5002093A40083FF08C080917C0058
:1002100090917D009093A7008093A6008091A70005
:100220008F938091A6008F938091A5008F938091EA
:10023000A4008F938091A3008F938091A2008F934D
:100240008091A1008F938091A0008F9380E690E031
:100250009F938F9380E890E09F938F9355D38DB7B2
:100260009EB70C960FB6F8949EBF0FBE8DBF089533
:1002700026E046E166E08EE690E012C062E088E0AB
:100280006CD262E089E069D262E08AE066D262E024
:100290008BE063C262E084E060D262E087E05DC22E
:1002A000FC0166834783208781E085870895CF938B
:1002B000DF93EC0160E08E8150D261E08E818BD2C1
:1002C00019861A861B861C86DF91CF910895CF92DE
:1002D000DF92FF920F931F93CF93DF93EC0161E0C6
:1002E0008E8179D26AEF70E080E090E0F9D1C5D1DB
:1002F00009851A852B853C8560177107820793074E
:1003000020F419861A861B861C862D85211116C09D
:1003100009851A852B853C85601B710B820B930B1D
:10032000603D77408105910548F481E0DF91CF91F0
:100330001F910F91FF90DF90CF9008951D869DD162
:1003400069877A878B879C871C821B821A82198215
:10035000188261E08E8101D260E08E813CD264E13E
:1003600070E080E090E0BCD1F89461E08E8133D2FF
:1003700088E290E0DFD160E08E81EFD1F12C81E066
:1003800010E000E0C82ED12C8E8162D28C159D0524
:1003900031F40F5F81E090E0CDD10F3FA9F78E815E
:1003A00057D20F3FB9F0143090F010FD10C0EF2D70
:1003B000E695E695E695EC0FFD2FF11D9081990FDE
:1003C00090832885201710F491609083F3941F5F29
:1003D0001535B9F6789487E28F1590F44C81288111
:1003E0008981280F3327331F8A81280F311D8B8184
:1003F000820F932F911D99274817190609F495CF5D
:1004000080E094CF1F93CF93DF93EC01162F5FDF33
:10041000882339F08F818B3039F018F08551823084
:1004200098F089E19CEF0CC08A8190E0112341F0A3
:1004300069E070E02BD265E070E04DD2CB01809690
:10044000DF91CF911F9108953A81832F8F7790E0AC
:10045000982F88272B81820F911D6AE070E03BD294
:10046000CB0137FFE3CF919581959109DFCFCF93F2
:10047000DF93EC012CDF882339F08F818B3031F052
:1004800018F08551823030F08FEF01C08881DF9104
:10049000CF910895888190E0982F88272981820F35
:1004A000911D6AE070E003D2862FF1CFFC018CE849
:1004B000615088F0519198E0742F7527242F30E017
:1004C00035952795422F70FF02C0482F4227569539
:1004D000915091F7EDCF842F089561E08DE03DC1FB
:1004E0000F931F93CF93DF93C7E0D0E0082F10E066
:1004F00060E08DE070D1C8010C2E02C09595879503
:100500000A94E2F780FF10C087EF91E013D161E019
:100510008DE061D182EF91E00DD1219748F7DF9115
:10052000CF911F910F9108958DEF90E0EFCFEF9253
:10053000FF920F931F93CF93DF938C01C62FF42E5E
:100540004091AE00B3DFE82EDFE080E0C9DFD1509C
:10055000E1F760E08DE03FD18CED95E0EBD061E01C
:100560008DE039D182EF91E0E5D08C2FB9DF8E2D6F
:10057000B7DF8091AE00B4DFC15028F0F801EC0F76
:10058000F11D8081F8CF60E08DE025D1FF2029F0BA
:100590008091AE008F5F8093AE00DF91CF911F916D
:1005A0000F91FF90EF90089560E870E0FB010190DB
:1005B0000020E9F7BF01615870406F5F41E080E8BB
:1005C00090E0B5DF84E190E1B5C087DF8EE690E092
:1005D0006EDE54DE5FCEE8DF79DD85DDE3CDB5D0BC
:1005E000F4DFF9DFFECF1F920F920FB60F921124A6
:1005F0002F933F938F939F93AF93BF938091B000BE
:100600009091B100A091B200B091B3003091AF00D1
:1006100023E0230F2D3768F126E8230F0296A11D52
:10062000B11D2093AF008093B0009093B100A093D0
:10063000B200B093B3008091B4009091B500A09146
:10064000B600B091B7000196A11DB11D8093B40012
:100650009093B500A093B600B093B700BF91AF914F
:100660009F918F913F912F910F900FBE0F901F90F0
:1006700018950196A11DB11DD4CF2FB7F8946091A4
:10068000B0007091B1008091B2009091B3002FBF83
:1006900008953FB7F8948091B4009091B500A0916F
:1006A000B600B091B70022B708B601FE05C02F3FD3
:1006B00019F00196A11DB11D3FBFBA2FA92F982F88
:1006C0008827BC01CD01620F711D811D911D42E083
:1006D000660F771F881F991F4A95D1F708950895CF
:1006E000CF92DF92EF92FF92CF93DF936B017C0169
:1006F000D0DFEB01C114D104E104F10461F0EFDFBC
:10070000C8DF6C1B7D0B683E7340A0F3C114D1049D
:10071000E104F10439F4DF91CF91FF90EF90DF9085
:10072000CF90089581E0C81AD108E108F108C851B6
:10073000DC4FE6CF8230910538F0880F991F880F83
:10074000991F05970197F1F7089583E080BF83BF54
:10075000789489B7826089BF0895CF93DF9387FD2E
:100760008FEF90E0FC01E45CFF4F2491825B9F4F90
:10077000FC0184918823C9F090E0880F991FFC0147
:10078000EC58FF4FA591B491FC01E659FF4FC5917C
:10079000D49161110DC09FB7F8948C91209582235C
:1007A0008C938881282328839FBFDF91CF91089560
:1007B000623051F49FB7F8943C91822F8095832347
:1007C0008C93E8812E2BEFCF8FB7F894EC912E2BE2
:1007D0002C938FBFEACF87FD8FEF90E0FC01E65DA1
:1007E000FF4F3491FC01E45CFF4F2491FC01E25B7C
:1007F000FF4FE491EE23B9F0332329F03130A1F417
:1008000080B78F7780BFF0E0EE0FFF1FE659FF4FF4
:10081000A591B4918FB7611117C0F894EC91209510
:100820002E232C938FBF0895323019F480B78F7D1B
:10083000E9CF333021F48FB58F778FBDE4CF3430DB
:1008400011F78FB58F7DF9CFF894EC912E2BE9CF6E
:1008500087FD8FEF90E0FC01E45CFF4F2491FC01E9
:10086000E25BFF4FE491EE2371F0F0E0EE0FFF1F2B
:10087000E05AFF4FA591B491EC91E22381E090E022
:1008800021F480E0089580E090E008950024552749
:1008900004C0080E591F880F991F009729F07695FC
:1008A0006795B8F37105B9F7802D952F0895AA1BA8
:1008B000BB1B51E107C0AA1FBB1FA617B70710F04B
:1008C000A61BB70B881F991F5A95A9F7809590957D
:1008D000BC01CD01089597FB072E16F4009406D0B5
:1008E00077FD08D0E4DF07FC05D03EF490958195B4
:1008F0009F4F0895709561957F4F0895EE0FFF1FEC
:100900000590F491E02D0994AEE0B0E0E9E8F4E060
:10091000A3C20D891E8986E08C831A8309838FEF19
:100920009FE79E838D83AE01475E5F4F6F89788D11
:10093000CE01019609D02F813885020F131FF801CF
:1009400010822E96E4E0A4C2ABE0B0E0E9EAF4E065
:1009500075C27C013B018A01FC01178216828381EA
:1009600081FFBAC1CE0101965C01F7019381F301C9
:1009700093FD859193FF81913F01882309F449C13B
:10098000853239F493FD859193FF81913F01853242
:1009900021F4B70190E0B9D1E8CF912C212C312C72
:1009A000FFE1F31538F08B3211F190F4803209F148
:1009B000833229F137FC3CC020ED280F2A3050F556
:1009C00036FE20C0892D6AE030D2922E980E06C0E5
:1009D0008D3291F0803371F7689430F8F30193FD14
:1009E000859193FF81913F018111DACF21C06894F5
:1009F00031F8689432F8F2CF689433F8EFCF689406
:100A000034F8ECCF822D6AE010D2222E280E6894A2
:100A100035F8E4CF8E3229F436FCFBC0689436F802
:100A2000DDCF8C3619F4689437F8D8CF8836B1F218
:100A3000982F9F7D95549330D8F0833691F183376A
:100A4000B1F1833509F05EC02801F2E04F0E511C70
:100A5000F801C080D180692D70E036FC02C06FEFD4
:100A60007FEFC6013CD14C01689437F882010AC07F
:100A70000C5F1F4F2FE3298388248394912C6501F9
:100A8000E89437F833FE2AC0522C8114910459F5AA
:100A9000552009F46ACFB70180E290E036D15A942C
:100AA000F7CFF801808189830E5F1F4FE5CF2801C2
:100AB000F2E04F0E511CF801C080D180692D70E02A
:100AC00036FC02C06FEF7FEFC60114D14C018201EA
:100AD000D7CFB70180E290E018D12A9428141904E6
:100AE00009F0B8F7D1CFF60137FC859137FE819137
:100AF0006F01B70190E009D151105A94F1E08F1ABB
:100B00009108C3CF843619F0893609F073C0F80113
:100B100037FE67C060817181828193810C5F1F4FB6
:100B2000F32DFF763F2E97FF09C090958095709525
:100B300061957F4F8F4F9F4F689437F82AE030E0E0
:100B4000A50113D1C82ECA18DC2C832C36FE0CC08C
:100B5000E89480F8C91440F434FE05C032FC03C0A8
:100B6000F32DFE7E8F2ED92C84FE90C0FE01EC0D5D
:100B7000F11D8081803309F082C0282D297E822ECC
:100B8000882D8870582E83FC8FC080FE89C09C2CD5
:100B9000D21418F42C0C922C9D1884FE8BC0B70133
:100BA00080E390E0B2D082FE08C088E790E081FE4A
:100BB00002C088E590E0B701A8D0C91408F486C047
:100BC000CA94D12C9FEFC91AD90ACA0CDB1CF601B2
:100BD00082916F01B70190E098D0AC14BD04B9F7D1
:100BE00057CF60817181072E000C880B990B0E5F27
:100BF0001F4F96CFD32CE894D4F82AE030E0853705
:100C000031F1232D297FD22E8F36F9F040F488352B
:100C1000A1F0F701868197812B96E2E12BC1803705
:100C200049F08837B1F7D4FE02C06894D2F820E1C9
:100C300030E00DC06894D4F8F6CF34FE03C0822FA4
:100C40008660D82E20E132E002C028E030E0F801D2
:100C5000D7FE0EC060817181828193810C5F1F4F2E
:100C6000A50183D0C82ECA183D2CE89437F86CCF64
:100C70006081718190E080E00E5F1F4FF1CF82FCB8
:100C800002C0D3947DCFD394D3947ACF882D867825
:100C900009F476CFF6CFB70180E290E036D0D39456
:100CA000D214C8F3512C79CF522C5D18D21408F409
:100CB00074CFF8CF882D867809F47FCF8BE281FE40
:100CC00080E287FC8DE2B70190E076CFB70180E348
:100CD00090E01BD09A9471CF8FEF9FEF9DCFFC01D6
:100CE0000590615070400110D8F7809590958E0F57
:100CF0009F1F0895FC016150704001900110D8F7CA
:100D0000809590958E0F9F1F08950F931F93CF93FB
:100D1000DF93182F092FEB018B8181FD09C01FEF95
:100D20000FEF812F902FDF91CF911F910F91089599
:100D300082FF14C02E813F818C819D812817390745
:100D40003CF4E881F981CF0101969983888310836F
:100D50008E819F8101969F838E83E3CFE885F985FD
:100D6000812F0995892BA1F3DACFFA01AA27283020
:100D700061F1203191F1E8946F936E7F6E5F7F4F48
:100D80008F4F9F4FAF4FB1E040D0B4E03ED0670FE0
:100D9000781F891F9A1FA11D680F791F8A1F911D37
:100DA000A11D6A0F711D811D911DA11D22D009F485
:100DB00068943F91062E000C3019000C000C30197D
:100DC000305D3193CEF6CF010895462F4770405DD8
:100DD0004193B3E00FD0C9F7F6CF462F4F70405D77
:100DE0004A3318F0495D31FD4052419302D0A9F7D2
:100DF000EACFB4E0A6959795879577956795BA95CC
:100E0000C9F700976105710508959B01AC010A2E91
:100E100006945795479537952795BA95C9F7620F68
:100E2000731F841F951FA01D0895002480FD060ECA
:100E3000660F11F08695D1F7802D08952F923F927D
:100E40004F925F926F927F928F929F92AF92BF92DA
:100E5000CF92DF92EF92FF920F931F93CF93DF9386
:100E6000CDB7DEB7CA1BDB0B0FB6F894DEBF0FBEE3
:100E7000CDBF09942A88398848885F846E847D8430
:100E80008C849B84AA84B984C884DF80EE80FD8032
:100E90000C811B81AA81B981CE0FD11D0FB6F894A8
:0E0EA000DEBF0FBECDBFED010895F894FFCF69
:0E0EAE0025642C25642C25642C25640D0A0077
:00000001FF
